S00C00004C4142322E7372656317
S113000099C00000B6C00000B4C00000B2C0000037
S1130010B0C00000AEC00000ACC00000AAC0000028
S1130020A8C00000A6C00000A4C00000A2C0000038
S1130030A0C000009EC000009CC000009AC0000048
S113004098C0000096C0000094C0000092C0000058
S113005090C000008EC000008CC000008AC0000068
S113006088C0000086C0000084C0000082C0000078
S113007080C000007EC000007CC000007AC0000088
S113008078C0000076C0000074C0000072C0000098
S113009070C000006EC000006CC000006AC00000A8
S11300A068C0000066C0000064C0000062C00000B8
S11300B060C000005EC000005CC000005AC00000C8
S11300C058C0000056C0000054C0000052C00000D8
S11300D050C000004EC000004CC000004AC00000E8
S11300E048C0000046C0000044C0000042C00000F8
S11300F040C000003EC000003CC000003AC0000008
S113010038C0000036C0000034C0000032C0000017
S113011030C000002EC000002CC000002AC0000027
S113012028C0000026C0000024C0000022C0000037
S113013020C0000011241FBECFEFD1E8DEBFCDBF29
S113014000E00CBF12E0A0E0B2E0E4E3F3E000E082
S11301500BBF02C007900D92A03EB107D9F722E071
S1130160A0EEB2E001C01D92A03EB207E1F750D06C
S1130170DFC046CF9C0140E050E060E271EA87E0D6
S113018090E098D0215031093093CD002093CC00D9
S113019088E18093C90008959091C80095FFFCCF31
S11301A08093CE0008958091C8008823E4F780915D
S11301B0CE000895CF93DF93EC0102C0EDDF2196CA
S11301C088818111FBCF8DE0E7DF8AE0E5DF80E005
S11301D0E3DFDF91CF9108958FE192E0EBDF80E4DC
S11301E092E0E8DF87E592E0E5DF8FE692E0E2CF98
S11301F00895CF93DF93C0E0D0E004C08EE192E095
S1130200D9DF2196C431D105CCF3DF91CF91089584
S1130210CF93DF93CDB7DEB72D970FB6F894DEBF3B
S11302200FBECDBF80E096E9A5DF8DE0E0E0F2E00F
S1130230DE01119601900D928A95E1F710E002C05B
S1130240ABDF1F5FE1E0F0E0EC0FFD1FE10FF11DFC
S113025080818111F5CF84B1806684B98DB18860C5
S11302608DB9BADFA0DF182F8DE792E0A3DF812FCD
S113027093DF8DE091DF8AE08FDF113349F0123391
S113028071F0103399F48CE892E094DFB2DFEACF96
S113029087E992E08FDF85B18F7D85B9E3CF89EA65
S11302A092E088DF85B1806285B9DCCF8CEB92E087
S11302B081DFD8CF052E97FB16F400940FD057FD9D
S11302C005D014D007FC02D046F408C050954095E0
S11302D0309521953F4F4F4F5F4F089590958095EE
S11302E0709561957F4F8F4F9F4F0895A1E21A2E0D
S11302F0AA1BBB1BFD010DC0AA1FBB1FEE1FFF1FC6
S1130300A217B307E407F50720F0A21BB30BE40B15
S1130310F50B661F771F881F991F1A9469F760955C
S11303207095809590959B01AC01BD01CF01089516
S1070330F894FFCF6B
S113033448656C6C6F20554152540D0A0050524F5D
S11303444752414D204552524F52002563200057D5
S1130354656C636F6D6520746F20696E746572617A
S11303646374697665207465726D696E616C2100CD
S113037431202E2E2E2E2E2E207475726E206F6E2A
S1130384206C656420310032202E2E2E2E2E2E2039
S11303947475726E206F6666206C6564203100305B
S11303A4202E2E2E2E2E2E206578697400596F75FA
S11303B47220696E7075742069733A0045786974A3
S11303C4696E672E2E2E005475726E696E67204C0A
S11303D445442031206F6E21005475726E696E6736
S11303E4204C45442031206F66662100496E7661B5
S11303F46C696420696E7075742C20706C6561730B
S1130404652063686F6F736520616761696E2E0090
S9030000FC
