S00C00004C4142322E7372656317
S113000099C00000B6C00000B4C00000B2C0000037
S1130010B0C00000AEC00000ACC00000AAC0000028
S1130020A8C00000A6C00000A4C00000A2C0000038
S1130030A0C000009EC000009CC000009AC0000048
S113004098C0000096C0000094C0000092C0000058
S113005090C000008EC000008CC000008AC0000068
S113006088C0000086C0000084C0000082C0000078
S113007080C000007EC000007CC000007AC0000088
S113008078C0000076C0000074C0000072C0000098
S113009070C000006EC000006CC000006AC00000A8
S11300A068C0000066C0000064C0000062C00000B8
S11300B060C000005EC000005CC000005AC00000C8
S11300C058C0000056C0000054C0000052C00000D8
S11300D050C000004EC000004CC000004AC00000E8
S11300E048C0000046C0000044C0000042C00000F8
S11300F040C000003EC000003CC000003AC0000008
S113010038C0000036C0000034C0000032C0000017
S113011030C000002EC000002CC000002AC0000027
S113012028C0000026C0000024C0000022C0000037
S113013020C0000011241FBECFEFD1E8DEBFCDBF29
S113014000E00CBF12E0A0E0B2E0E8EAF2E000E078
S11301500BBF02C007900D92AE35B107D9F722E06C
S1130160AEE5B2E001C01D92AE35B207E1F730D082
S113017099C046CF9C0140E050E060E271EA87E01C
S113018090E052D0215031093093CD002093CC001F
S113019088E18093C90008959091C80095FFFCCF31
S11301A08093CE0008958091C8008823E4F780915D
S11301B0CE000895CF93DF93EC0102C0EDDF2196CA
S11301C088818111FBCF8AE0E7DFDF91CF91089529
S11301D0CF93DF93CDB7DEB72C970FB6F894DEBF7D
S11301E00FBECDBF80E096E9C5DF8CE0E0E0F2E031
S11301F0DE01119601900D928A95E1F710E002C09C
S1130200CBDF1F5FE1E0F0E0EC0FFD1FE10FF11D1C
S113021080818111F5CF8EE192E0CCDF8FE392E013
S1130220C9DFC1DFB9DFFDCF052E97FB16F40094BB
S11302300FD057FD05D014D007FC02D046F408C0F7
S113024050954095309521953F4F4F4F5F4F0895FE
S113025090958095709561957F4F8F4F9F4F08952E
S1130260A1E21A2EAA1BBB1BFD010DC0AA1FBB1FB6
S1130270EE1FFF1FA217B307E407F50720F0A21B28
S1130280B30BE40BF50B661F771F881F991F1A9495
S113029069F760957095809590959B01AC01BD01BF
S10B02A0CF010895F894FFCF8B
S11302A848656C6C6F20554152540A0050524F47B0
S11302B852414D204552524F520025632000576544
S11302C86C636F6D6520746F20696E746572616309
S11302D874697665207465726D696E616C2100437A
S11302E8686F6F73652061206E756D626572206634
S11102F86F7220726573706F6E73653A00004A
S9030000FC
